{
  "_format": "hh-sol-artifact-1",
  "contractName": "FreelanceEscrow",
  "sourceName": "contracts/Escrow.sol",
  "abi": [
    {
      "inputs": [],
      "stateMutability": "nonpayable",
      "type": "constructor"
    },
    {
      "inputs": [
        {
          "internalType": "address",
          "name": "owner",
          "type": "address"
        }
      ],
      "name": "OwnableInvalidOwner",
      "type": "error"
    },
    {
      "inputs": [
        {
          "internalType": "address",
          "name": "account",
          "type": "address"
        }
      ],
      "name": "OwnableUnauthorizedAccount",
      "type": "error"
    },
    {
      "inputs": [],
      "name": "ReentrancyGuardReentrantCall",
      "type": "error"
    },
    {
      "anonymous": false,
      "inputs": [
        {
          "indexed": true,
          "internalType": "uint256",
          "name": "projectId",
          "type": "uint256"
        },
        {
          "indexed": true,
          "internalType": "uint256",
          "name": "milestoneId",
          "type": "uint256"
        }
      ],
      "name": "DisputeRaised",
      "type": "event"
    },
    {
      "anonymous": false,
      "inputs": [
        {
          "indexed": true,
          "internalType": "uint256",
          "name": "projectId",
          "type": "uint256"
        },
        {
          "indexed": true,
          "internalType": "uint256",
          "name": "milestoneId",
          "type": "uint256"
        },
        {
          "indexed": false,
          "internalType": "bool",
          "name": "releasedToFreelancer",
          "type": "bool"
        }
      ],
      "name": "DisputeResolved",
      "type": "event"
    },
    {
      "anonymous": false,
      "inputs": [
        {
          "indexed": true,
          "internalType": "uint256",
          "name": "projectId",
          "type": "uint256"
        },
        {
          "indexed": true,
          "internalType": "uint256",
          "name": "milestoneId",
          "type": "uint256"
        },
        {
          "indexed": false,
          "internalType": "uint256",
          "name": "amount",
          "type": "uint256"
        }
      ],
      "name": "MilestoneApproved",
      "type": "event"
    },
    {
      "anonymous": false,
      "inputs": [
        {
          "indexed": true,
          "internalType": "uint256",
          "name": "projectId",
          "type": "uint256"
        },
        {
          "indexed": true,
          "internalType": "uint256",
          "name": "milestoneId",
          "type": "uint256"
        }
      ],
      "name": "MilestoneSubmitted",
      "type": "event"
    },
    {
      "anonymous": false,
      "inputs": [
        {
          "indexed": true,
          "internalType": "address",
          "name": "previousOwner",
          "type": "address"
        },
        {
          "indexed": true,
          "internalType": "address",
          "name": "newOwner",
          "type": "address"
        }
      ],
      "name": "OwnershipTransferred",
      "type": "event"
    },
    {
      "anonymous": false,
      "inputs": [
        {
          "indexed": true,
          "internalType": "uint256",
          "name": "projectId",
          "type": "uint256"
        },
        {
          "indexed": true,
          "internalType": "address",
          "name": "client",
          "type": "address"
        },
        {
          "indexed": true,
          "internalType": "address",
          "name": "freelancer",
          "type": "address"
        },
        {
          "indexed": false,
          "internalType": "uint256",
          "name": "totalAmount",
          "type": "uint256"
        }
      ],
      "name": "ProjectCreated",
      "type": "event"
    },
    {
      "anonymous": false,
      "inputs": [
        {
          "indexed": true,
          "internalType": "uint256",
          "name": "projectId",
          "type": "uint256"
        },
        {
          "indexed": false,
          "internalType": "uint256",
          "name": "amount",
          "type": "uint256"
        }
      ],
      "name": "ProjectFunded",
      "type": "event"
    },
    {
      "inputs": [
        {
          "internalType": "uint256",
          "name": "_projectId",
          "type": "uint256"
        },
        {
          "internalType": "uint256",
          "name": "_milestoneId",
          "type": "uint256"
        }
      ],
      "name": "approveMilestone",
      "outputs": [],
      "stateMutability": "nonpayable",
      "type": "function"
    },
    {
      "inputs": [
        {
          "internalType": "address",
          "name": "_freelancer",
          "type": "address"
        },
        {
          "internalType": "string[]",
          "name": "_descriptions",
          "type": "string[]"
        },
        {
          "internalType": "uint256[]",
          "name": "_amounts",
          "type": "uint256[]"
        }
      ],
      "name": "createProject",
      "outputs": [
        {
          "internalType": "uint256",
          "name": "",
          "type": "uint256"
        }
      ],
      "stateMutability": "nonpayable",
      "type": "function"
    },
    {
      "inputs": [
        {
          "internalType": "uint256",
          "name": "_projectId",
          "type": "uint256"
        },
        {
          "internalType": "uint256",
          "name": "_milestoneId",
          "type": "uint256"
        }
      ],
      "name": "disputeMilestone",
      "outputs": [],
      "stateMutability": "nonpayable",
      "type": "function"
    },
    {
      "inputs": [
        {
          "internalType": "uint256",
          "name": "_projectId",
          "type": "uint256"
        }
      ],
      "name": "fundProject",
      "outputs": [],
      "stateMutability": "payable",
      "type": "function"
    },
    {
      "inputs": [
        {
          "internalType": "uint256",
          "name": "_projectId",
          "type": "uint256"
        },
        {
          "internalType": "uint256",
          "name": "_milestoneId",
          "type": "uint256"
        }
      ],
      "name": "getMilestone",
      "outputs": [
        {
          "internalType": "string",
          "name": "",
          "type": "string"
        },
        {
          "internalType": "uint256",
          "name": "",
          "type": "uint256"
        },
        {
          "internalType": "enum FreelanceEscrow.MilestoneStatus",
          "name": "",
          "type": "uint8"
        }
      ],
      "stateMutability": "view",
      "type": "function"
    },
    {
      "inputs": [],
      "name": "owner",
      "outputs": [
        {
          "internalType": "address",
          "name": "",
          "type": "address"
        }
      ],
      "stateMutability": "view",
      "type": "function"
    },
    {
      "inputs": [],
      "name": "projectCount",
      "outputs": [
        {
          "internalType": "uint256",
          "name": "",
          "type": "uint256"
        }
      ],
      "stateMutability": "view",
      "type": "function"
    },
    {
      "inputs": [
        {
          "internalType": "uint256",
          "name": "",
          "type": "uint256"
        }
      ],
      "name": "projects",
      "outputs": [
        {
          "internalType": "address",
          "name": "client",
          "type": "address"
        },
        {
          "internalType": "address",
          "name": "freelancer",
          "type": "address"
        },
        {
          "internalType": "uint256",
          "name": "totalAmount",
          "type": "uint256"
        },
        {
          "internalType": "uint256",
          "name": "milestoneCount",
          "type": "uint256"
        },
        {
          "internalType": "bool",
          "name": "isFunded",
          "type": "bool"
        }
      ],
      "stateMutability": "view",
      "type": "function"
    },
    {
      "inputs": [],
      "name": "renounceOwnership",
      "outputs": [],
      "stateMutability": "nonpayable",
      "type": "function"
    },
    {
      "inputs": [
        {
          "internalType": "uint256",
          "name": "_projectId",
          "type": "uint256"
        },
        {
          "internalType": "uint256",
          "name": "_milestoneId",
          "type": "uint256"
        },
        {
          "internalType": "bool",
          "name": "_releaseToFreelancer",
          "type": "bool"
        }
      ],
      "name": "resolveDispute",
      "outputs": [],
      "stateMutability": "nonpayable",
      "type": "function"
    },
    {
      "inputs": [
        {
          "internalType": "uint256",
          "name": "_projectId",
          "type": "uint256"
        },
        {
          "internalType": "uint256",
          "name": "_milestoneId",
          "type": "uint256"
        }
      ],
      "name": "submitMilestone",
      "outputs": [],
      "stateMutability": "nonpayable",
      "type": "function"
    },
    {
      "inputs": [
        {
          "internalType": "address",
          "name": "newOwner",
          "type": "address"
        }
      ],
      "name": "transferOwnership",
      "outputs": [],
      "stateMutability": "nonpayable",
      "type": "function"
    }
  ],
  "bytecode": "0x60806040523480156200001157600080fd5b503360016200003562000029620000c960201b60201c565b620000f460201b60201c565b60000181905550600073ffffffffffffffffffffffffffffffffffffffff168173ffffffffffffffffffffffffffffffffffffffff1603620000b15760006040517f1e4fbdf7000000000000000000000000000000000000000000000000000000008152600401620000a8919062000207565b60405180910390fd5b620000c281620000fe60201b60201c565b5062000224565b60007f9b779b17422d0df92223018b32b4d1fa46e071723d6817e2486d003becc55f0060001b905090565b6000819050919050565b60008060009054906101000a900473ffffffffffffffffffffffffffffffffffffffff169050816000806101000a81548173ffffffffffffffffffffffffffffffffffffffff021916908373ffffffffffffffffffffffffffffffffffffffff1602179055508173ffffffffffffffffffffffffffffffffffffffff168173ffffffffffffffffffffffffffffffffffffffff167f8be0079c531659141344cd1fd0a4f28419497f9722a3daafe3b4186f6b6457e060405160405180910390a35050565b600073ffffffffffffffffffffffffffffffffffffffff82169050919050565b6000620001ef82620001c2565b9050919050565b6200020181620001e2565b82525050565b60006020820190506200021e6000830184620001f6565b92915050565b6127b480620002346000396000f3fe6080604052600436106100a75760003560e01c80636c563abe116100645780636c563abe146101d0578063715018a6146101ec5780638da5cb5b146102035780638ed9895c1461022e578063d47ffcd71461026d578063f2fde38b14610296576100a7565b806303f3554d146100ac5780630875b784146100e9578063107046bd1461011257806320913da51461015357806336c47f5f1461017c57806336fbad26146101a5575b600080fd5b3480156100b857600080fd5b506100d360048036038101906100ce919061190b565b6102bf565b6040516100e091906119a5565b60405180910390f35b3480156100f557600080fd5b50610110600480360381019061010b91906119c0565b610604565b005b34801561011e57600080fd5b5061013960048036038101906101349190611a00565b6107ad565b60405161014a959493929190611a57565b60405180910390f35b34801561015f57600080fd5b5061017a600480360381019061017591906119c0565b610830565b005b34801561018857600080fd5b506101a3600480360381019061019e9190611ad6565b610ac1565b005b3480156101b157600080fd5b506101ba610da4565b6040516101c791906119a5565b60405180910390f35b6101ea60048036038101906101e59190611a00565b610daa565b005b3480156101f857600080fd5b50610201610fb2565b005b34801561020f57600080fd5b50610218610fc6565b6040516102259190611b29565b60405180910390f35b34801561023a57600080fd5b50610255600480360381019061025091906119c0565b610fef565b60405161026493929190611c3a565b60405180910390f35b34801561027957600080fd5b50610294600480360381019061028f91906119c0565b6110d4565b005b3480156102a257600080fd5b506102bd60048036038101906102b89190611c78565b6112c9565b005b60008073ffffffffffffffffffffffffffffffffffffffff168473ffffffffffffffffffffffffffffffffffffffff160361032f576040517f08c379a000000000000000000000000000000000000000000000000000000000815260040161032690611cf1565b60405180910390fd5b8151835114610373576040517f08c379a000000000000000000000000000000000000000000000000000000000815260040161036a90611d5d565b60405180910390fd5b60008351116103b7576040517f08c379a00000000000000000000000000000000000000000000000000000000081526004016103ae90611dc9565b60405180910390fd5b600160008154809291906103ca90611e18565b919050555060006002600060015481526020019081526020016000209050338160000160006101000a81548173ffffffffffffffffffffffffffffffffffffffff021916908373ffffffffffffffffffffffffffffffffffffffff160217905550848160010160006101000a81548173ffffffffffffffffffffffffffffffffffffffff021916908373ffffffffffffffffffffffffffffffffffffffff160217905550835181600301819055506000805b85518110156105845760405180606001604052808783815181106104a3576104a2611e60565b5b602002602001015181526020018683815181106104c3576104c2611e60565b5b60200260200101518152602001600060058111156104e4576104e3611bc3565b5b8152508360050160008381526020019081526020016000206000820151816000019081610511919061209b565b506020820151816001015560408201518160020160006101000a81548160ff0219169083600581111561054757610546611bc3565b5b021790555090505084818151811061056257610561611e60565b5b602002602001015182610575919061216d565b9150808060010191505061047c565b508082600201819055508573ffffffffffffffffffffffffffffffffffffffff163373ffffffffffffffffffffffffffffffffffffffff166001547ff03bc2e49a83d942284cb30e1c2935d4b542e1e1e6456d28b5365ddb110a52a2846040516105ee91906119a5565b60405180910390a4600154925050509392505050565b60006002600084815260200190815260200160002090508060010160009054906101000a900473ffffffffffffffffffffffffffffffffffffffff1673ffffffffffffffffffffffffffffffffffffffff163373ffffffffffffffffffffffffffffffffffffffff16146106ad576040517f08c379a00000000000000000000000000000000000000000000000000000000081526004016106a4906121ed565b60405180910390fd5b600160058111156106c1576106c0611bc3565b5b81600501600084815260200190815260200160002060020160009054906101000a900460ff1660058111156106f9576106f8611bc3565b5b14610739576040517f08c379a000000000000000000000000000000000000000000000000000000000815260040161073090612259565b60405180910390fd5b600281600501600084815260200190815260200160002060020160006101000a81548160ff0219169083600581111561077557610774611bc3565b5b021790555081837f26cf581e2709e0615164af15a371b2dd10fb48d5baed91e9eacd557633c16bcb60405160405180910390a3505050565b60026020528060005260406000206000915090508060000160009054906101000a900473ffffffffffffffffffffffffffffffffffffffff16908060010160009054906101000a900473ffffffffffffffffffffffffffffffffffffffff16908060020154908060030154908060040160009054906101000a900460ff16905085565b61083861134f565b60006002600084815260200190815260200160002090508060000160009054906101000a900473ffffffffffffffffffffffffffffffffffffffff1673ffffffffffffffffffffffffffffffffffffffff163373ffffffffffffffffffffffffffffffffffffffff16146108e1576040517f08c379a00000000000000000000000000000000000000000000000000000000081526004016108d8906122c5565b60405180910390fd5b600081600501600084815260200190815260200160002090506002600581111561090e5761090d611bc3565b5b8160020160009054906101000a900460ff16600581111561093257610931611bc3565b5b14610972576040517f08c379a000000000000000000000000000000000000000000000000000000000815260040161096990612331565b60405180910390fd5b60008160010154905060038260020160006101000a81548160ff021916908360058111156109a3576109a2611bc3565b5b021790555060008360010160009054906101000a900473ffffffffffffffffffffffffffffffffffffffff1673ffffffffffffffffffffffffffffffffffffffff16826040516109f290612382565b60006040518083038185875af1925050503d8060008114610a2f576040519150601f19603f3d011682016040523d82523d6000602084013e610a34565b606091505b5050905080610a78576040517f08c379a0000000000000000000000000000000000000000000000000000000008152600401610a6f906123e3565b60405180910390fd5b84867f6e3fd8bb18eed6833ae758e07c361bf145ce27c88bdf6d5029ddabf188d72ca684604051610aa991906119a5565b60405180910390a350505050610abd611372565b5050565b610ac961138d565b610ad161134f565b60006002600085815260200190815260200160002090506000816005016000858152602001908152602001600020905060046005811115610b1557610b14611bc3565b5b8160020160009054906101000a900460ff166005811115610b3957610b38611bc3565b5b14610b79576040517f08c379a0000000000000000000000000000000000000000000000000000000008152600401610b709061244f565b60405180910390fd5b60058160020160006101000a81548160ff02191690836005811115610ba157610ba0611bc3565b5b02179055508215610c865760008260010160009054906101000a900473ffffffffffffffffffffffffffffffffffffffff1673ffffffffffffffffffffffffffffffffffffffff168260010154604051610bfa90612382565b60006040518083038185875af1925050503d8060008114610c37576040519150601f19603f3d011682016040523d82523d6000602084013e610c3c565b606091505b5050905080610c80576040517f08c379a0000000000000000000000000000000000000000000000000000000008152600401610c77906124bb565b60405180910390fd5b50610d5c565b60008260000160009054906101000a900473ffffffffffffffffffffffffffffffffffffffff1673ffffffffffffffffffffffffffffffffffffffff168260010154604051610cd490612382565b60006040518083038185875af1925050503d8060008114610d11576040519150601f19603f3d011682016040523d82523d6000602084013e610d16565b606091505b5050905080610d5a576040517f08c379a0000000000000000000000000000000000000000000000000000000008152600401610d5190612527565b60405180910390fd5b505b83857fc84a77110774854ab237145b108e924962dbaa5191275eb044a6cb09621c4a9485604051610d8d9190612547565b60405180910390a35050610d9f611372565b505050565b60015481565b610db261134f565b60006002600083815260200190815260200160002090508060000160009054906101000a900473ffffffffffffffffffffffffffffffffffffffff1673ffffffffffffffffffffffffffffffffffffffff163373ffffffffffffffffffffffffffffffffffffffff1614610e5b576040517f08c379a0000000000000000000000000000000000000000000000000000000008152600401610e52906125ae565b60405180910390fd5b8060040160009054906101000a900460ff1615610ead576040517f08c379a0000000000000000000000000000000000000000000000000000000008152600401610ea49061261a565b60405180910390fd5b80600201543414610ef3576040517f08c379a0000000000000000000000000000000000000000000000000000000008152600401610eea90612686565b60405180910390fd5b60018160040160006101000a81548160ff02191690831515021790555060005b8160030154811015610f6d57600182600501600083815260200190815260200160002060020160006101000a81548160ff02191690836005811115610f5b57610f5a611bc3565b5b02179055508080600101915050610f13565b50817f26130d0cd3f6aa101d05e4a4f2ff016fd5b934363d17bdd03ff5dc03ec5934a934604051610f9e91906119a5565b60405180910390a250610faf611372565b50565b610fba61138d565b610fc46000611414565b565b60008060009054906101000a900473ffffffffffffffffffffffffffffffffffffffff16905090565b6060600080600060026000878152602001908152602001600020600501600086815260200190815260200160002090508060000181600101548260020160009054906101000a900460ff1682805461104690611ebe565b80601f016020809104026020016040519081016040528092919081815260200182805461107290611ebe565b80156110bf5780601f10611094576101008083540402835291602001916110bf565b820191906000526020600020905b8154815290600101906020018083116110a257829003601f168201915b50505050509250935093509350509250925092565b60006002600084815260200190815260200160002090508060000160009054906101000a900473ffffffffffffffffffffffffffffffffffffffff1673ffffffffffffffffffffffffffffffffffffffff163373ffffffffffffffffffffffffffffffffffffffff16148061119857508060010160009054906101000a900473ffffffffffffffffffffffffffffffffffffffff1673ffffffffffffffffffffffffffffffffffffffff163373ffffffffffffffffffffffffffffffffffffffff16145b6111d7576040517f08c379a00000000000000000000000000000000000000000000000000000000081526004016111ce906126f2565b60405180910390fd5b600081600501600084815260200190815260200160002090506002600581111561120457611203611bc3565b5b8160020160009054906101000a900460ff16600581111561122857611227611bc3565b5b14611268576040517f08c379a000000000000000000000000000000000000000000000000000000000815260040161125f9061275e565b60405180910390fd5b60048160020160006101000a81548160ff021916908360058111156112905761128f611bc3565b5b021790555082847f1954f0ea9e3f5fbdc693320e038db1549f419ae5351b74d36cee7c9ef13dd2b660405160405180910390a350505050565b6112d161138d565b600073ffffffffffffffffffffffffffffffffffffffff168173ffffffffffffffffffffffffffffffffffffffff16036113435760006040517f1e4fbdf700000000000000000000000000000000000000000000000000000000815260040161133a9190611b29565b60405180910390fd5b61134c81611414565b50565b6113576114d8565b6002611369611364611519565b611544565b60000181905550565b600161138461137f611519565b611544565b60000181905550565b61139561154e565b73ffffffffffffffffffffffffffffffffffffffff166113b3610fc6565b73ffffffffffffffffffffffffffffffffffffffff1614611412576113d661154e565b6040517f118cdaa70000000000000000000000000000000000000000000000000000000081526004016114099190611b29565b60405180910390fd5b565b60008060009054906101000a900473ffffffffffffffffffffffffffffffffffffffff169050816000806101000a81548173ffffffffffffffffffffffffffffffffffffffff021916908373ffffffffffffffffffffffffffffffffffffffff1602179055508173ffffffffffffffffffffffffffffffffffffffff168173ffffffffffffffffffffffffffffffffffffffff167f8be0079c531659141344cd1fd0a4f28419497f9722a3daafe3b4186f6b6457e060405160405180910390a35050565b6114e0611556565b15611517576040517f3ee5aeb500000000000000000000000000000000000000000000000000000000815260040160405180910390fd5b565b60007f9b779b17422d0df92223018b32b4d1fa46e071723d6817e2486d003becc55f0060001b905090565b6000819050919050565b600033905090565b6000600261156a611565611519565b611544565b6000015414905090565b6000604051905090565b600080fd5b600080fd5b600073ffffffffffffffffffffffffffffffffffffffff82169050919050565b60006115b382611588565b9050919050565b6115c3816115a8565b81146115ce57600080fd5b50565b6000813590506115e0816115ba565b92915050565b600080fd5b6000601f19601f8301169050919050565b7f4e487b7100000000000000000000000000000000000000000000000000000000600052604160045260246000fd5b611634826115eb565b810181811067ffffffffffffffff82111715611653576116526115fc565b5b80604052505050565b6000611666611574565b9050611672828261162b565b919050565b600067ffffffffffffffff821115611692576116916115fc565b5b602082029050602081019050919050565b600080fd5b600080fd5b600067ffffffffffffffff8211156116c8576116c76115fc565b5b6116d1826115eb565b9050602081019050919050565b82818337600083830152505050565b60006117006116fb846116ad565b61165c565b90508281526020810184848401111561171c5761171b6116a8565b5b6117278482856116de565b509392505050565b600082601f830112611744576117436115e6565b5b81356117548482602086016116ed565b91505092915050565b600061177061176b84611677565b61165c565b90508083825260208201905060208402830185811115611793576117926116a3565b5b835b818110156117da57803567ffffffffffffffff8111156117b8576117b76115e6565b5b8086016117c5898261172f565b85526020850194505050602081019050611795565b5050509392505050565b600082601f8301126117f9576117f86115e6565b5b813561180984826020860161175d565b91505092915050565b600067ffffffffffffffff82111561182d5761182c6115fc565b5b602082029050602081019050919050565b6000819050919050565b6118518161183e565b811461185c57600080fd5b50565b60008135905061186e81611848565b92915050565b600061188761188284611812565b61165c565b905080838252602082019050602084028301858111156118aa576118a96116a3565b5b835b818110156118d357806118bf888261185f565b8452602084019350506020810190506118ac565b5050509392505050565b600082601f8301126118f2576118f16115e6565b5b8135611902848260208601611874565b91505092915050565b6000806000606084860312156119245761192361157e565b5b6000611932868287016115d1565b935050602084013567ffffffffffffffff81111561195357611952611583565b5b61195f868287016117e4565b925050604084013567ffffffffffffffff8111156119805761197f611583565b5b61198c868287016118dd565b9150509250925092565b61199f8161183e565b82525050565b60006020820190506119ba6000830184611996565b92915050565b600080604083850312156119d7576119d661157e565b5b60006119e58582860161185f565b92505060206119f68582860161185f565b9150509250929050565b600060208284031215611a1657611a1561157e565b5b6000611a248482850161185f565b91505092915050565b611a36816115a8565b82525050565b60008115159050919050565b611a5181611a3c565b82525050565b600060a082019050611a6c6000830188611a2d565b611a796020830187611a2d565b611a866040830186611996565b611a936060830185611996565b611aa06080830184611a48565b9695505050505050565b611ab381611a3c565b8114611abe57600080fd5b50565b600081359050611ad081611aaa565b92915050565b600080600060608486031215611aef57611aee61157e565b5b6000611afd8682870161185f565b9350506020611b0e8682870161185f565b9250506040611b1f86828701611ac1565b9150509250925092565b6000602082019050611b3e6000830184611a2d565b92915050565b600081519050919050565b600082825260208201905092915050565b60005b83811015611b7e578082015181840152602081019050611b63565b60008484015250505050565b6000611b9582611b44565b611b9f8185611b4f565b9350611baf818560208601611b60565b611bb8816115eb565b840191505092915050565b7f4e487b7100000000000000000000000000000000000000000000000000000000600052602160045260246000fd5b60068110611c0357611c02611bc3565b5b50565b6000819050611c1482611bf2565b919050565b6000611c2482611c06565b9050919050565b611c3481611c19565b82525050565b60006060820190508181036000830152611c548186611b8a565b9050611c636020830185611996565b611c706040830184611c2b565b949350505050565b600060208284031215611c8e57611c8d61157e565b5b6000611c9c848285016115d1565b91505092915050565b7f496e76616c696420667265656c616e6365722061646472657373000000000000600082015250565b6000611cdb601a83611b4f565b9150611ce682611ca5565b602082019050919050565b60006020820190508181036000830152611d0a81611cce565b9050919050565b7f4d69736d61746368696e67206d696c6573746f6e652064617461000000000000600082015250565b6000611d47601a83611b4f565b9150611d5282611d11565b602082019050919050565b60006020820190508181036000830152611d7681611d3a565b9050919050565b7f4e6f206d696c6573746f6e65732070726f766964656400000000000000000000600082015250565b6000611db3601683611b4f565b9150611dbe82611d7d565b602082019050919050565b60006020820190508181036000830152611de281611da6565b9050919050565b7f4e487b7100000000000000000000000000000000000000000000000000000000600052601160045260246000fd5b6000611e238261183e565b91507fffffffffffffffffffffffffffffffffffffffffffffffffffffffffffffffff8203611e5557611e54611de9565b5b600182019050919050565b7f4e487b7100000000000000000000000000000000000000000000000000000000600052603260045260246000fd5b7f4e487b7100000000000000000000000000000000000000000000000000000000600052602260045260246000fd5b60006002820490506001821680611ed657607f821691505b602082108103611ee957611ee8611e8f565b5b50919050565b60008190508160005260206000209050919050565b60006020601f8301049050919050565b600082821b905092915050565b600060088302611f517fffffffffffffffffffffffffffffffffffffffffffffffffffffffffffffffff82611f14565b611f5b8683611f14565b95508019841693508086168417925050509392505050565b6000819050919050565b6000611f98611f93611f8e8461183e565b611f73565b61183e565b9050919050565b6000819050919050565b611fb283611f7d565b611fc6611fbe82611f9f565b848454611f21565b825550505050565b600090565b611fdb611fce565b611fe6818484611fa9565b505050565b5b8181101561200a57611fff600082611fd3565b600181019050611fec565b5050565b601f82111561204f5761202081611eef565b61202984611f04565b81016020851015612038578190505b61204c61204485611f04565b830182611feb565b50505b505050565b600082821c905092915050565b600061207260001984600802612054565b1980831691505092915050565b600061208b8383612061565b9150826002028217905092915050565b6120a482611b44565b67ffffffffffffffff8111156120bd576120bc6115fc565b5b6120c78254611ebe565b6120d282828561200e565b600060209050601f83116001811461210557600084156120f3578287015190505b6120fd858261207f565b865550612165565b601f19841661211386611eef565b60005b8281101561213b57848901518255600182019150602085019450602081019050612116565b868310156121585784890151612154601f891682612061565b8355505b6001600288020188555050505b505050505050565b60006121788261183e565b91506121838361183e565b925082820190508082111561219b5761219a611de9565b5b92915050565b7f4f6e6c7920667265656c616e6365722063616e207375626d6974000000000000600082015250565b60006121d7601a83611b4f565b91506121e2826121a1565b602082019050919050565b60006020820190508181036000830152612206816121ca565b9050919050565b7f496e76616c6964206d696c6573746f6e65207374617475730000000000000000600082015250565b6000612243601883611b4f565b915061224e8261220d565b602082019050919050565b6000602082019050818103600083015261227281612236565b9050919050565b7f4f6e6c7920636c69656e742063616e20617070726f7665000000000000000000600082015250565b60006122af601783611b4f565b91506122ba82612279565b602082019050919050565b600060208201905081810360008301526122de816122a2565b9050919050565b7f4d696c6573746f6e65206e6f74207375626d6974746564000000000000000000600082015250565b600061231b601783611b4f565b9150612326826122e5565b602082019050919050565b6000602082019050818103600083015261234a8161230e565b9050919050565b600081905092915050565b50565b600061236c600083612351565b91506123778261235c565b600082019050919050565b600061238d8261235f565b9150819050919050565b7f5472616e73666572206661696c65640000000000000000000000000000000000600082015250565b60006123cd600f83611b4f565b91506123d882612397565b602082019050919050565b600060208201905081810360008301526123fc816123c0565b9050919050565b7f4e6f7420696e2064697370757465000000000000000000000000000000000000600082015250565b6000612439600e83611b4f565b915061244482612403565b602082019050919050565b600060208201905081810360008301526124688161242c565b9050919050565b7f5472616e7366657220746f20667265656c616e636572206661696c6564000000600082015250565b60006124a5601d83611b4f565b91506124b08261246f565b602082019050919050565b600060208201905081810360008301526124d481612498565b9050919050565b7f526566756e6420746f20636c69656e74206661696c6564000000000000000000600082015250565b6000612511601783611b4f565b915061251c826124db565b602082019050919050565b6000602082019050818103600083015261254081612504565b9050919050565b600060208201905061255c6000830184611a48565b92915050565b7f4f6e6c7920636c69656e742063616e2066756e64000000000000000000000000600082015250565b6000612598601483611b4f565b91506125a382612562565b602082019050919050565b600060208201905081810360008301526125c78161258b565b9050919050565b7f416c72656164792066756e646564000000000000000000000000000000000000600082015250565b6000612604600e83611b4f565b915061260f826125ce565b602082019050919050565b60006020820190508181036000830152612633816125f7565b9050919050565b7f496e636f72726563742066756e64696e6720616d6f756e740000000000000000600082015250565b6000612670601883611b4f565b915061267b8261263a565b602082019050919050565b6000602082019050818103600083015261269f81612663565b9050919050565b7f4e6f7420617574686f72697a6564000000000000000000000000000000000000600082015250565b60006126dc600e83611b4f565b91506126e7826126a6565b602082019050919050565b6000602082019050818103600083015261270b816126cf565b9050919050565b7f43616e6e6f742064697370757465000000000000000000000000000000000000600082015250565b6000612748600e83611b4f565b915061275382612712565b602082019050919050565b600060208201905081810360008301526127778161273b565b905091905056fea264697066735822122053f7b3c5335e53f54102cc9d2d57f36157d086a82c110e381a83e710e54245d664736f6c63430008180033",
  "linkReferences": {},
  "deployedLinkReferences": {}
}