{
  "_format": "hh-sol-artifact-1",
  "contractName": "FreelanceEscrow",
  "sourceName": "contracts/Escrow.sol",
  "abi": [
    {
      "inputs": [],
      "stateMutability": "nonpayable",
      "type": "constructor"
    },
    {
      "inputs": [],
      "name": "AlreadyFunded",
      "type": "error"
    },
    {
      "inputs": [],
      "name": "CannotDispute",
      "type": "error"
    },
    {
      "inputs": [],
      "name": "IncorrectFunding",
      "type": "error"
    },
    {
      "inputs": [],
      "name": "InvalidAddress",
      "type": "error"
    },
    {
      "inputs": [],
      "name": "MilestoneNotFunded",
      "type": "error"
    },
    {
      "inputs": [],
      "name": "MilestoneNotSubmitted",
      "type": "error"
    },
    {
      "inputs": [],
      "name": "MismatchingData",
      "type": "error"
    },
    {
      "inputs": [],
      "name": "NoMilestones",
      "type": "error"
    },
    {
      "inputs": [],
      "name": "NotInDispute",
      "type": "error"
    },
    {
      "inputs": [],
      "name": "OnlyClient",
      "type": "error"
    },
    {
      "inputs": [],
      "name": "OnlyFreelancer",
      "type": "error"
    },
    {
      "inputs": [],
      "name": "OnlyInvolvedParties",
      "type": "error"
    },
    {
      "inputs": [
        {
          "internalType": "address",
          "name": "owner",
          "type": "address"
        }
      ],
      "name": "OwnableInvalidOwner",
      "type": "error"
    },
    {
      "inputs": [
        {
          "internalType": "address",
          "name": "account",
          "type": "address"
        }
      ],
      "name": "OwnableUnauthorizedAccount",
      "type": "error"
    },
    {
      "inputs": [],
      "name": "ReentrancyGuardReentrantCall",
      "type": "error"
    },
    {
      "inputs": [],
      "name": "TransferFailed",
      "type": "error"
    },
    {
      "anonymous": false,
      "inputs": [
        {
          "indexed": true,
          "internalType": "uint256",
          "name": "projectId",
          "type": "uint256"
        },
        {
          "indexed": true,
          "internalType": "uint256",
          "name": "milestoneId",
          "type": "uint256"
        }
      ],
      "name": "DisputeRaised",
      "type": "event"
    },
    {
      "anonymous": false,
      "inputs": [
        {
          "indexed": true,
          "internalType": "uint256",
          "name": "projectId",
          "type": "uint256"
        },
        {
          "indexed": true,
          "internalType": "uint256",
          "name": "milestoneId",
          "type": "uint256"
        },
        {
          "indexed": false,
          "internalType": "bool",
          "name": "releasedToFreelancer",
          "type": "bool"
        }
      ],
      "name": "DisputeResolved",
      "type": "event"
    },
    {
      "anonymous": false,
      "inputs": [
        {
          "indexed": true,
          "internalType": "address",
          "name": "to",
          "type": "address"
        },
        {
          "indexed": false,
          "internalType": "uint256",
          "name": "amount",
          "type": "uint256"
        }
      ],
      "name": "FundsRescued",
      "type": "event"
    },
    {
      "anonymous": false,
      "inputs": [
        {
          "indexed": true,
          "internalType": "uint256",
          "name": "projectId",
          "type": "uint256"
        },
        {
          "indexed": true,
          "internalType": "uint256",
          "name": "milestoneId",
          "type": "uint256"
        },
        {
          "indexed": false,
          "internalType": "uint256",
          "name": "amount",
          "type": "uint256"
        }
      ],
      "name": "MilestoneApproved",
      "type": "event"
    },
    {
      "anonymous": false,
      "inputs": [
        {
          "indexed": true,
          "internalType": "uint256",
          "name": "projectId",
          "type": "uint256"
        },
        {
          "indexed": true,
          "internalType": "uint256",
          "name": "milestoneId",
          "type": "uint256"
        }
      ],
      "name": "MilestoneSubmitted",
      "type": "event"
    },
    {
      "anonymous": false,
      "inputs": [
        {
          "indexed": true,
          "internalType": "address",
          "name": "previousOwner",
          "type": "address"
        },
        {
          "indexed": true,
          "internalType": "address",
          "name": "newOwner",
          "type": "address"
        }
      ],
      "name": "OwnershipTransferred",
      "type": "event"
    },
    {
      "anonymous": false,
      "inputs": [
        {
          "indexed": true,
          "internalType": "uint256",
          "name": "projectId",
          "type": "uint256"
        },
        {
          "indexed": true,
          "internalType": "address",
          "name": "client",
          "type": "address"
        },
        {
          "indexed": true,
          "internalType": "address",
          "name": "freelancer",
          "type": "address"
        },
        {
          "indexed": false,
          "internalType": "uint256",
          "name": "totalAmount",
          "type": "uint256"
        }
      ],
      "name": "ProjectCreated",
      "type": "event"
    },
    {
      "anonymous": false,
      "inputs": [
        {
          "indexed": true,
          "internalType": "uint256",
          "name": "projectId",
          "type": "uint256"
        },
        {
          "indexed": false,
          "internalType": "uint256",
          "name": "amount",
          "type": "uint256"
        }
      ],
      "name": "ProjectFunded",
      "type": "event"
    },
    {
      "stateMutability": "payable",
      "type": "fallback"
    },
    {
      "inputs": [
        {
          "internalType": "uint256",
          "name": "_projectId",
          "type": "uint256"
        },
        {
          "internalType": "address",
          "name": "_freelancer",
          "type": "address"
        }
      ],
      "name": "assignFreelancer",
      "outputs": [],
      "stateMutability": "nonpayable",
      "type": "function"
    },
    {
      "inputs": [
        {
          "internalType": "address",
          "name": "_freelancer",
          "type": "address"
        },
        {
          "internalType": "string[]",
          "name": "_descriptions",
          "type": "string[]"
        },
        {
          "internalType": "uint256[]",
          "name": "_amounts",
          "type": "uint256[]"
        }
      ],
      "name": "createAndFundProject",
      "outputs": [
        {
          "internalType": "uint256",
          "name": "",
          "type": "uint256"
        }
      ],
      "stateMutability": "payable",
      "type": "function"
    },
    {
      "inputs": [
        {
          "internalType": "address",
          "name": "_freelancer",
          "type": "address"
        },
        {
          "internalType": "string[]",
          "name": "_descriptions",
          "type": "string[]"
        },
        {
          "internalType": "uint256[]",
          "name": "_amounts",
          "type": "uint256[]"
        }
      ],
      "name": "createProject",
      "outputs": [
        {
          "internalType": "uint256",
          "name": "",
          "type": "uint256"
        }
      ],
      "stateMutability": "nonpayable",
      "type": "function"
    },
    {
      "inputs": [
        {
          "internalType": "uint256",
          "name": "_projectId",
          "type": "uint256"
        },
        {
          "internalType": "uint256",
          "name": "_milestoneId",
          "type": "uint256"
        }
      ],
      "name": "disputeMilestone",
      "outputs": [],
      "stateMutability": "nonpayable",
      "type": "function"
    },
    {
      "inputs": [],
      "name": "emergencyWithdraw",
      "outputs": [],
      "stateMutability": "nonpayable",
      "type": "function"
    },
    {
      "inputs": [
        {
          "internalType": "uint256",
          "name": "_projectId",
          "type": "uint256"
        }
      ],
      "name": "fundProject",
      "outputs": [],
      "stateMutability": "payable",
      "type": "function"
    },
    {
      "inputs": [
        {
          "internalType": "uint256",
          "name": "_projectId",
          "type": "uint256"
        }
      ],
      "name": "getProjectDetails",
      "outputs": [
        {
          "internalType": "address",
          "name": "client",
          "type": "address"
        },
        {
          "internalType": "address",
          "name": "freelancer",
          "type": "address"
        },
        {
          "internalType": "uint256",
          "name": "totalAmount",
          "type": "uint256"
        },
        {
          "internalType": "uint256",
          "name": "milestoneCount",
          "type": "uint256"
        },
        {
          "internalType": "bool",
          "name": "isFunded",
          "type": "bool"
        }
      ],
      "stateMutability": "view",
      "type": "function"
    },
    {
      "inputs": [],
      "name": "owner",
      "outputs": [
        {
          "internalType": "address",
          "name": "",
          "type": "address"
        }
      ],
      "stateMutability": "view",
      "type": "function"
    },
    {
      "inputs": [],
      "name": "projectCount",
      "outputs": [
        {
          "internalType": "uint256",
          "name": "",
          "type": "uint256"
        }
      ],
      "stateMutability": "view",
      "type": "function"
    },
    {
      "inputs": [
        {
          "internalType": "uint256",
          "name": "",
          "type": "uint256"
        }
      ],
      "name": "projects",
      "outputs": [
        {
          "internalType": "address",
          "name": "client",
          "type": "address"
        },
        {
          "internalType": "address",
          "name": "freelancer",
          "type": "address"
        },
        {
          "internalType": "uint256",
          "name": "totalAmount",
          "type": "uint256"
        },
        {
          "internalType": "uint256",
          "name": "milestoneCount",
          "type": "uint256"
        },
        {
          "internalType": "bool",
          "name": "isFunded",
          "type": "bool"
        }
      ],
      "stateMutability": "view",
      "type": "function"
    },
    {
      "inputs": [
        {
          "internalType": "uint256",
          "name": "_projectId",
          "type": "uint256"
        },
        {
          "internalType": "uint256",
          "name": "_milestoneId",
          "type": "uint256"
        }
      ],
      "name": "releasePayment",
      "outputs": [],
      "stateMutability": "nonpayable",
      "type": "function"
    },
    {
      "inputs": [],
      "name": "renounceOwnership",
      "outputs": [],
      "stateMutability": "nonpayable",
      "type": "function"
    },
    {
      "inputs": [
        {
          "internalType": "uint256",
          "name": "_projectId",
          "type": "uint256"
        },
        {
          "internalType": "uint256",
          "name": "_milestoneId",
          "type": "uint256"
        },
        {
          "internalType": "bool",
          "name": "_releaseToFreelancer",
          "type": "bool"
        }
      ],
      "name": "resolveDispute",
      "outputs": [],
      "stateMutability": "nonpayable",
      "type": "function"
    },
    {
      "inputs": [
        {
          "internalType": "uint256",
          "name": "_projectId",
          "type": "uint256"
        },
        {
          "internalType": "uint256",
          "name": "_milestoneId",
          "type": "uint256"
        }
      ],
      "name": "submitMilestone",
      "outputs": [],
      "stateMutability": "nonpayable",
      "type": "function"
    },
    {
      "inputs": [
        {
          "internalType": "address",
          "name": "newOwner",
          "type": "address"
        }
      ],
      "name": "transferOwnership",
      "outputs": [],
      "stateMutability": "nonpayable",
      "type": "function"
    },
    {
      "stateMutability": "payable",
      "type": "receive"
    }
  ],
  "bytecode": "0x60806040523480156200001157600080fd5b503360016200003562000029620000c960201b60201c565b620000f460201b60201c565b60000181905550600073ffffffffffffffffffffffffffffffffffffffff168173ffffffffffffffffffffffffffffffffffffffff1603620000b15760006040517f1e4fbdf7000000000000000000000000000000000000000000000000000000008152600401620000a8919062000207565b60405180910390fd5b620000c281620000fe60201b60201c565b5062000224565b60007f9b779b17422d0df92223018b32b4d1fa46e071723d6817e2486d003becc55f0060001b905090565b6000819050919050565b60008060009054906101000a900473ffffffffffffffffffffffffffffffffffffffff169050816000806101000a81548173ffffffffffffffffffffffffffffffffffffffff021916908373ffffffffffffffffffffffffffffffffffffffff1602179055508173ffffffffffffffffffffffffffffffffffffffff168173ffffffffffffffffffffffffffffffffffffffff167f8be0079c531659141344cd1fd0a4f28419497f9722a3daafe3b4186f6b6457e060405160405180910390a35050565b600073ffffffffffffffffffffffffffffffffffffffff82169050919050565b6000620001ef82620001c2565b9050919050565b6200020181620001e2565b82525050565b60006020820190506200021e6000830184620001f6565b92915050565b61216a80620002346000396000f3fe6080604052600436106100eb5760003560e01c80636c563abe1161008a578063c949756c11610059578063c949756c146102e7578063d47ffcd714610310578063db2e21bc14610339578063f2fde38b14610350576100f2565b80636c563abe14610260578063715018a61461027c5780638da5cb5b1461029357806397e99a80146102be576100f2565b8063107046bd116100c6578063107046bd1461018a57806336c47f5f146101cb57806336fbad26146101f45780635f8439e31461021f576100f2565b8062242587146100f457806303f3554d146101245780630875b78414610161576100f2565b366100f257005b005b61010e6004803603810190610109919061195a565b610379565b60405161011b9190611a08565b60405180910390f35b34801561013057600080fd5b5061014b6004803603810190610146919061195a565b6104b1565b6040516101589190611a08565b60405180910390f35b34801561016d57600080fd5b5061018860048036038101906101839190611a4f565b6107c9565b005b34801561019657600080fd5b506101b160048036038101906101ac9190611a8f565b610960565b6040516101c2959493929190611ae6565b60405180910390f35b3480156101d757600080fd5b506101f260048036038101906101ed9190611b65565b6109e3565b005b34801561020057600080fd5b50610209610c09565b6040516102169190611a08565b60405180910390f35b34801561022b57600080fd5b5061024660048036038101906102419190611a8f565b610c0f565b604051610257959493929190611ae6565b60405180910390f35b61027a60048036038101906102759190611a8f565b610ca7565b005b34801561028857600080fd5b50610291610e94565b005b34801561029f57600080fd5b506102a8610ea8565b6040516102b59190611bb8565b60405180910390f35b3480156102ca57600080fd5b506102e560048036038101906102e09190611a4f565b610ed1565b005b3480156102f357600080fd5b5061030e60048036038101906103099190611bd3565b611147565b005b34801561031c57600080fd5b5061033760048036038101906103329190611a4f565b611295565b005b34801561034557600080fd5b5061034e61147c565b005b34801561035c57600080fd5b5061037760048036038101906103729190611c13565b61158c565b005b6000610383611612565b600061039287878787876104b1565b90506000600260008381526020019081526020016000209050806002015434146103e8576040517f527d7dfd00000000000000000000000000000000000000000000000000000000815260040160405180910390fd5b60018160040160006101000a81548160ff02191690831515021790555060005b816003015481101561046257600182600501600083815260200190815260200160002060020160006101000a81548160ff021916908360058111156104505761044f611c40565b5b02179055508080600101915050610408565b50817f26130d0cd3f6aa101d05e4a4f2ff016fd5b934363d17bdd03ff5dc03ec5934a9346040516104939190611a08565b60405180910390a281925050506104a8611635565b95945050505050565b60008282905085859050146104f2576040517f54441a7c00000000000000000000000000000000000000000000000000000000815260040160405180910390fd5b6000858590500361052f576040517f5c4a81cc00000000000000000000000000000000000000000000000000000000815260040160405180910390fd5b600060016000815461054090611c9e565b91905081905590506000600260008381526020019081526020016000209050338160000160006101000a81548173ffffffffffffffffffffffffffffffffffffffff021916908373ffffffffffffffffffffffffffffffffffffffff160217905550878160010160006101000a81548173ffffffffffffffffffffffffffffffffffffffff021916908373ffffffffffffffffffffffffffffffffffffffff1602179055508686905081600301819055506000805b8888905081101561074a5760405180606001604052808a8a8481811061061e5761061d611ce6565b5b90506020028101906106309190611d24565b8080601f016020809104026020016040519081016040528093929190818152602001838380828437600081840152601f19601f82011690508083019250505050505050815260200188888481811061068b5761068a611ce6565b5b905060200201358152602001600060058111156106ab576106aa611c40565b5b81525083600501600083815260200190815260200160002060008201518160000190816106d89190611fcd565b506020820151816001015560408201518160020160006101000a81548160ff0219169083600581111561070e5761070d611c40565b5b021790555090505086868281811061072957610728611ce6565b5b905060200201358261073b919061209f565b915080806001019150506105f5565b508082600201819055508873ffffffffffffffffffffffffffffffffffffffff163373ffffffffffffffffffffffffffffffffffffffff16847ff03bc2e49a83d942284cb30e1c2935d4b542e1e1e6456d28b5365ddb110a52a2846040516107b29190611a08565b60405180910390a482935050505095945050505050565b60006002600084815260200190815260200160002090508060010160009054906101000a900473ffffffffffffffffffffffffffffffffffffffff1673ffffffffffffffffffffffffffffffffffffffff163373ffffffffffffffffffffffffffffffffffffffff1614610869576040517f6b7809b900000000000000000000000000000000000000000000000000000000815260040160405180910390fd5b6001600581111561087d5761087c611c40565b5b81600501600084815260200190815260200160002060020160009054906101000a900460ff1660058111156108b5576108b4611c40565b5b146108ec576040517fd06c7c0b00000000000000000000000000000000000000000000000000000000815260040160405180910390fd5b600281600501600084815260200190815260200160002060020160006101000a81548160ff0219169083600581111561092857610927611c40565b5b021790555081837f26cf581e2709e0615164af15a371b2dd10fb48d5baed91e9eacd557633c16bcb60405160405180910390a3505050565b60026020528060005260406000206000915090508060000160009054906101000a900473ffffffffffffffffffffffffffffffffffffffff16908060010160009054906101000a900473ffffffffffffffffffffffffffffffffffffffff16908060020154908060030154908060040160009054906101000a900460ff16905085565b6109eb611650565b6109f3611612565b60006002600085815260200190815260200160002090506000816005016000858152602001908152602001600020905060046005811115610a3757610a36611c40565b5b8160020160009054906101000a900460ff166005811115610a5b57610a5a611c40565b5b14610a92576040517f49dfe70300000000000000000000000000000000000000000000000000000000815260040160405180910390fd5b60058160020160006101000a81548160ff02191690836005811115610aba57610ab9611c40565b5b0217905550600083610af0578260000160009054906101000a900473ffffffffffffffffffffffffffffffffffffffff16610b16565b8260010160009054906101000a900473ffffffffffffffffffffffffffffffffffffffff165b905060008173ffffffffffffffffffffffffffffffffffffffff168360010154604051610b4290612104565b60006040518083038185875af1925050503d8060008114610b7f576040519150601f19603f3d011682016040523d82523d6000602084013e610b84565b606091505b5050905080610bbf576040517f90b8ec1800000000000000000000000000000000000000000000000000000000815260040160405180910390fd5b85877fc84a77110774854ab237145b108e924962dbaa5191275eb044a6cb09621c4a9487604051610bf09190612119565b60405180910390a350505050610c04611635565b505050565b60015481565b6000806000806000806002600088815260200190815260200160002090508060000160009054906101000a900473ffffffffffffffffffffffffffffffffffffffff168160010160009054906101000a900473ffffffffffffffffffffffffffffffffffffffff16826002015483600301548460040160009054906101000a900460ff16955095509550955095505091939590929450565b610caf611612565b60006002600083815260200190815260200160002090508060000160009054906101000a900473ffffffffffffffffffffffffffffffffffffffff1673ffffffffffffffffffffffffffffffffffffffff163373ffffffffffffffffffffffffffffffffffffffff1614610d4f576040517fd6d90f8900000000000000000000000000000000000000000000000000000000815260040160405180910390fd5b8060040160009054906101000a900460ff1615610d98576040517f5adf638700000000000000000000000000000000000000000000000000000000815260040160405180910390fd5b80600201543414610dd5576040517f527d7dfd00000000000000000000000000000000000000000000000000000000815260040160405180910390fd5b60018160040160006101000a81548160ff02191690831515021790555060005b8160030154811015610e4f57600182600501600083815260200190815260200160002060020160006101000a81548160ff02191690836005811115610e3d57610e3c611c40565b5b02179055508080600101915050610df5565b50817f26130d0cd3f6aa101d05e4a4f2ff016fd5b934363d17bdd03ff5dc03ec5934a934604051610e809190611a08565b60405180910390a250610e91611635565b50565b610e9c611650565b610ea660006116d7565b565b60008060009054906101000a900473ffffffffffffffffffffffffffffffffffffffff16905090565b610ed9611612565b60006002600084815260200190815260200160002090508060000160009054906101000a900473ffffffffffffffffffffffffffffffffffffffff1673ffffffffffffffffffffffffffffffffffffffff163373ffffffffffffffffffffffffffffffffffffffff1614610f79576040517fd6d90f8900000000000000000000000000000000000000000000000000000000815260040160405180910390fd5b6000816005016000848152602001908152602001600020905060026005811115610fa657610fa5611c40565b5b8160020160009054906101000a900460ff166005811115610fca57610fc9611c40565b5b14611001576040517f825cc17000000000000000000000000000000000000000000000000000000000815260040160405180910390fd5b60008160010154905060038260020160006101000a81548160ff0219169083600581111561103257611031611c40565b5b021790555060008360010160009054906101000a900473ffffffffffffffffffffffffffffffffffffffff1673ffffffffffffffffffffffffffffffffffffffff168260405161108190612104565b60006040518083038185875af1925050503d80600081146110be576040519150601f19603f3d011682016040523d82523d6000602084013e6110c3565b606091505b50509050806110fe576040517f90b8ec1800000000000000000000000000000000000000000000000000000000815260040160405180910390fd5b84867f6e3fd8bb18eed6833ae758e07c361bf145ce27c88bdf6d5029ddabf188d72ca68460405161112f9190611a08565b60405180910390a350505050611143611635565b5050565b60006002600084815260200190815260200160002090508060000160009054906101000a900473ffffffffffffffffffffffffffffffffffffffff1673ffffffffffffffffffffffffffffffffffffffff163373ffffffffffffffffffffffffffffffffffffffff16146111e7576040517fd6d90f8900000000000000000000000000000000000000000000000000000000815260040160405180910390fd5b600073ffffffffffffffffffffffffffffffffffffffff168273ffffffffffffffffffffffffffffffffffffffff160361124d576040517fe6c4247b00000000000000000000000000000000000000000000000000000000815260040160405180910390fd5b818160010160006101000a81548173ffffffffffffffffffffffffffffffffffffffff021916908373ffffffffffffffffffffffffffffffffffffffff160217905550505050565b60006002600084815260200190815260200160002090508060000160009054906101000a900473ffffffffffffffffffffffffffffffffffffffff1673ffffffffffffffffffffffffffffffffffffffff163373ffffffffffffffffffffffffffffffffffffffff161415801561135c57508060010160009054906101000a900473ffffffffffffffffffffffffffffffffffffffff1673ffffffffffffffffffffffffffffffffffffffff163373ffffffffffffffffffffffffffffffffffffffff1614155b15611393576040517fc92567ce00000000000000000000000000000000000000000000000000000000815260040160405180910390fd5b60008160050160008481526020019081526020016000209050600260058111156113c0576113bf611c40565b5b8160020160009054906101000a900460ff1660058111156113e4576113e3611c40565b5b1461141b576040517f1a7a0ae500000000000000000000000000000000000000000000000000000000815260040160405180910390fd5b60048160020160006101000a81548160ff0219169083600581111561144357611442611c40565b5b021790555082847f1954f0ea9e3f5fbdc693320e038db1549f419ae5351b74d36cee7c9ef13dd2b660405160405180910390a350505050565b611484611650565b60004790506000611493610ea8565b73ffffffffffffffffffffffffffffffffffffffff16826040516114b690612104565b60006040518083038185875af1925050503d80600081146114f3576040519150601f19603f3d011682016040523d82523d6000602084013e6114f8565b606091505b5050905080611533576040517f90b8ec1800000000000000000000000000000000000000000000000000000000815260040160405180910390fd5b61153b610ea8565b73ffffffffffffffffffffffffffffffffffffffff167fc4474c2790e13695f6d2b6f1d8e164290b55370f87a542fd7711abe0a1bf40ac836040516115809190611a08565b60405180910390a25050565b611594611650565b600073ffffffffffffffffffffffffffffffffffffffff168173ffffffffffffffffffffffffffffffffffffffff16036116065760006040517f1e4fbdf70000000000000000000000000000000000000000000000000000000081526004016115fd9190611bb8565b60405180910390fd5b61160f816116d7565b50565b61161a61179b565b600261162c6116276117dc565b611807565b60000181905550565b60016116476116426117dc565b611807565b60000181905550565b611658611811565b73ffffffffffffffffffffffffffffffffffffffff16611676610ea8565b73ffffffffffffffffffffffffffffffffffffffff16146116d557611699611811565b6040517f118cdaa70000000000000000000000000000000000000000000000000000000081526004016116cc9190611bb8565b60405180910390fd5b565b60008060009054906101000a900473ffffffffffffffffffffffffffffffffffffffff169050816000806101000a81548173ffffffffffffffffffffffffffffffffffffffff021916908373ffffffffffffffffffffffffffffffffffffffff1602179055508173ffffffffffffffffffffffffffffffffffffffff168173ffffffffffffffffffffffffffffffffffffffff167f8be0079c531659141344cd1fd0a4f28419497f9722a3daafe3b4186f6b6457e060405160405180910390a35050565b6117a3611819565b156117da576040517f3ee5aeb500000000000000000000000000000000000000000000000000000000815260040160405180910390fd5b565b60007f9b779b17422d0df92223018b32b4d1fa46e071723d6817e2486d003becc55f0060001b905090565b6000819050919050565b600033905090565b6000600261182d6118286117dc565b611807565b6000015414905090565b600080fd5b600080fd5b600073ffffffffffffffffffffffffffffffffffffffff82169050919050565b600061186c82611841565b9050919050565b61187c81611861565b811461188757600080fd5b50565b60008135905061189981611873565b92915050565b600080fd5b600080fd5b600080fd5b60008083601f8401126118c4576118c361189f565b5b8235905067ffffffffffffffff8111156118e1576118e06118a4565b5b6020830191508360208202830111156118fd576118fc6118a9565b5b9250929050565b60008083601f84011261191a5761191961189f565b5b8235905067ffffffffffffffff811115611937576119366118a4565b5b602083019150836020820283011115611953576119526118a9565b5b9250929050565b60008060008060006060868803121561197657611975611837565b5b60006119848882890161188a565b955050602086013567ffffffffffffffff8111156119a5576119a461183c565b5b6119b1888289016118ae565b9450945050604086013567ffffffffffffffff8111156119d4576119d361183c565b5b6119e088828901611904565b92509250509295509295909350565b6000819050919050565b611a02816119ef565b82525050565b6000602082019050611a1d60008301846119f9565b92915050565b611a2c816119ef565b8114611a3757600080fd5b50565b600081359050611a4981611a23565b92915050565b60008060408385031215611a6657611a65611837565b5b6000611a7485828601611a3a565b9250506020611a8585828601611a3a565b9150509250929050565b600060208284031215611aa557611aa4611837565b5b6000611ab384828501611a3a565b91505092915050565b611ac581611861565b82525050565b60008115159050919050565b611ae081611acb565b82525050565b600060a082019050611afb6000830188611abc565b611b086020830187611abc565b611b1560408301866119f9565b611b2260608301856119f9565b611b2f6080830184611ad7565b9695505050505050565b611b4281611acb565b8114611b4d57600080fd5b50565b600081359050611b5f81611b39565b92915050565b600080600060608486031215611b7e57611b7d611837565b5b6000611b8c86828701611a3a565b9350506020611b9d86828701611a3a565b9250506040611bae86828701611b50565b9150509250925092565b6000602082019050611bcd6000830184611abc565b92915050565b60008060408385031215611bea57611be9611837565b5b6000611bf885828601611a3a565b9250506020611c098582860161188a565b9150509250929050565b600060208284031215611c2957611c28611837565b5b6000611c378482850161188a565b91505092915050565b7f4e487b7100000000000000000000000000000000000000000000000000000000600052602160045260246000fd5b7f4e487b7100000000000000000000000000000000000000000000000000000000600052601160045260246000fd5b6000611ca9826119ef565b91507fffffffffffffffffffffffffffffffffffffffffffffffffffffffffffffffff8203611cdb57611cda611c6f565b5b600182019050919050565b7f4e487b7100000000000000000000000000000000000000000000000000000000600052603260045260246000fd5b600080fd5b600080fd5b600080fd5b60008083356001602003843603038112611d4157611d40611d15565b5b80840192508235915067ffffffffffffffff821115611d6357611d62611d1a565b5b602083019250600182023603831315611d7f57611d7e611d1f565b5b509250929050565b600081519050919050565b7f4e487b7100000000000000000000000000000000000000000000000000000000600052604160045260246000fd5b7f4e487b7100000000000000000000000000000000000000000000000000000000600052602260045260246000fd5b60006002820490506001821680611e0857607f821691505b602082108103611e1b57611e1a611dc1565b5b50919050565b60008190508160005260206000209050919050565b60006020601f8301049050919050565b600082821b905092915050565b600060088302611e837fffffffffffffffffffffffffffffffffffffffffffffffffffffffffffffffff82611e46565b611e8d8683611e46565b95508019841693508086168417925050509392505050565b6000819050919050565b6000611eca611ec5611ec0846119ef565b611ea5565b6119ef565b9050919050565b6000819050919050565b611ee483611eaf565b611ef8611ef082611ed1565b848454611e53565b825550505050565b600090565b611f0d611f00565b611f18818484611edb565b505050565b5b81811015611f3c57611f31600082611f05565b600181019050611f1e565b5050565b601f821115611f8157611f5281611e21565b611f5b84611e36565b81016020851015611f6a578190505b611f7e611f7685611e36565b830182611f1d565b50505b505050565b600082821c905092915050565b6000611fa460001984600802611f86565b1980831691505092915050565b6000611fbd8383611f93565b9150826002028217905092915050565b611fd682611d87565b67ffffffffffffffff811115611fef57611fee611d92565b5b611ff98254611df0565b612004828285611f40565b600060209050601f8311600181146120375760008415612025578287015190505b61202f8582611fb1565b865550612097565b601f19841661204586611e21565b60005b8281101561206d57848901518255600182019150602085019450602081019050612048565b8683101561208a5784890151612086601f891682611f93565b8355505b6001600288020188555050505b505050505050565b60006120aa826119ef565b91506120b5836119ef565b92508282019050808211156120cd576120cc611c6f565b5b92915050565b600081905092915050565b50565b60006120ee6000836120d3565b91506120f9826120de565b600082019050919050565b600061210f826120e1565b9150819050919050565b600060208201905061212e6000830184611ad7565b9291505056fea264697066735822122057a07552bf06ab7f17f37d9d0af7c931713ca46f46b1d2b1def8c795415a337764736f6c63430008180033",
  "linkReferences": {},
  "deployedLinkReferences": {}
}